:100000000C943A000C9457000C9457000C94570031
:100010000C9457000C9457000C9457000C94570004
:100020000C9457000C9457000C9457000C945700F4
:100030000C9457000C9457000C9457000C945700E4
:100040000C9457000C9457000C9457000C945700D4
:100050000C9457000C9457000C9457000C945700C4
:100060000C9457000C9457000C9457000C945700B4
:100070000C94570011241FBECFEFD2E0DEBFCDBFDE
:1000800011E0A0E0B1E0E8E1F3E002C005900D92DC
:10009000A034B107D9F721E0A0E4B1E001C01D927E
:1000A000A134B207E1F70E946C010C948A010C9410
:1000B00000002A9A0000000000000000000000007C
:1000C000000000002A980895CF93C82F662311F0EE
:1000D000289A01C028982998239A249A259A269A22
:1000E0002E982D982C982B98CC230CF42E9AC6FD84
:1000F0002D9AC5FD2C9AC4FD2B9A0E9459002E986A
:100100002D982C982B98C3FD2E9AC2FD2D9AC1FDD7
:100110002C9AC0FD2B9A0E9459002B9A2C9A2D9A4A
:100120002E9ACF910895882311F0289A01C028981B
:10013000299A23982498259826982A9A0000000046
:100140000000000000000000000000001B9B02C037
:1001500080E101C080E01C9980621D9980641E9935
:1001600080682A98000000000000000000000000E5
:10017000000000002A9A00000000000000000000BB
:100180000000000000001B9981601C9982601D998D
:1001900084601E9988602A98089580E00E949300E8
:1001A0008823DCF382E08A95F1F700C080E00E94AA
:1001B00093000895CF93C82F0E94CD0060E08C2F4C
:1001C0000E946400CF91089540E450E060E270E046
:1001D00080E091E00E94830108958CE00E94DA00A3
:1001E000089582E00E94DA000895CF93C82F209AE4
:1001F000219A229A239A249A259A269A8FE391E0AB
:100200000197F1F700C000002C9A2B9A0E94590028
:1002100092E89A95F1F700C00E94590080E18A9512
:10022000F1F70E94590090E19A95F1F72B980E94FE
:10023000590080E18A95F1F788E20E94DA0088E0AF
:100240000E94DA000E94E40086E00E94DA008C2F0F
:100250000E94DA00CF910895CF93C82F0E94CD005D
:1002600061E08C2F0E9464000E94CD00803129F44F
:1002700060E080EC0E94640016C0803529F460E0E4
:1002800080E90E9464000FC0803229F460E080EDB4
:100290000E94640008C0803631F460E080E80E946B
:1002A00064000E94CD00CF9108950F931F93CF93C8
:1002B000DF930E94ED000E94F100C0E0D1E000E475
:1002C00011E089910E942C01C017D107D1F7DF916D
:1002D000CF911F910F9108958CE00E94F500C1E02D
:1002E00081E80E94DA00C09340010E94E4002FEFF1
:1002F00081EE94E0215080409040E1F700C0000082
:100300000E945501EDCFDC0101C06D93415050407A
:08031000E0F70895F894FFCF17
:1003180020202020202020202020202020202020D5
:1003280020202020202020202020202020202020C5
:1003380020202020202020202020202020202020B5
:1003480020202020202020202020202020202020A5
:00000001FF
